:020000040800F2
:100000000000012009020008C1060008C906000816
:10001000CB060008CD060008CF060008000000004F
:10002000000000000000000000000000D1060008F1
:10003000D306000800000000D5060008D706000817
:100040005902000859020008590200085902000824
:100050005902000859020008590200085902000814
:100060005902000859020008590200085902000804
:1000700059020008590200085902000859020008F4
:100080005902000859020008590200080000000047
:1000900000000000000000000000000059020008FD
:1000A00059020008590200085902000859020008C4
:1000B00059020008590200085902000859020008B4
:1000C00059020008590200085902000859020008A4
:1000D00059020008A5390008590200080000000074
:1000E00059020008590200085902000800000000E7
:1000F000000000000000000000000000590200089D
:1001000000000000590200085902000859020008C6
:1001100000000000000000000000000000000000DF
:100120005902000859020008E106000859020008B7
:10013000590200080000000000000000000000005C
:10014000000000000000000000000000590200084C
:100150005902000859020008F10600085902000877
:1001600059020008590200080000000000000000C9
:10017000000000000000000000000000000000007F
:10018000000000005902000800000000000000000C
:040190005902000808
:1001940053B94AB9002908BF00281CBF4FF0FF31EA
:1001A4004FF0FF3000F00CB8ADF1080C6DE904CE4F
:1001B40003F01AFDDDF804E0DDE9022304B0704722
:1001C400704700BF10B5054C237833B9044B13B105
:1001D4000448AFF300800123237010BD58000020B1
:1001E40000000000A83E000808B5034B1BB10349FA
:1001F4000348AFF3008008BD000000005C0000204D
:10020400A83E0008DFF834D00D480E490E4A0023FA
:1002140002E0D458C4500433C4188C42F9D30B4AB6
:100224000B4C002301E013600432A242FBD302F022
:1002340013FC03F0B5FC00F065F8704700000120E2
:100244000000002058000020F03E00085800002064
:1002540064050020FEE772B6FEE7000000B595B025
:100264003022002108A803F093FC00230393049395
:100274000593069307930193204A116C41F0805132
:100284001164126C02F080520192019A02931C4A8A
:10029400136823F4404343F400431360136803F4E6
:1002A40040430293029B012308934FF48033099344
:1002B40002220E924FF480030F93042310935421CF
:1002C40011911292139308A800F082FF90B90F23A2
:1002D4000393022304938023059300230693079337
:1002E400012103A801F0E4F930B901F06DF915B06A
:1002F4005DF804FBFFF7AFFFFFF7ADFF00380240E6
:100304000070004008B502F085F8FFF7A7FF00F081
:100314000BF800F063F800F083F800F037F900F010
:100324009BF802F03BFDFEE770B58AB0002405940B
:1003340006940794089409940194254B1A6B42F08F
:1003440080021A631A6B02F080020192019A0294ED
:100354001A6B42F004021A631A6B02F0040202924E
:10036400029A03941A6B42F001021A631A6B02F0A8
:1003740001020392039A04941A6B42F002021A6374
:100384001B6B03F002030493049B124D224630219D
:10039400284601F03BFD3026059601230693079479
:1003A400089405A9284601F04DFC4FF48073059389
:1003B4000694079405A9284601F044FC0596069482
:1003C400079405A9044801F03DFC0AB070BD00BFC4
:1003D40000380240000802400004024010B582B018
:1003E400002401940D4B1A6B42F480021A631B6BB8
:1003F40003F480030193019B224621463A2001F035
:10040400B1FF3A2001F0BEFF22462146462001F00A
:10041400A9FF462001F0B6FF02B010BD003802402B
:1004240008B50B480B4B036042F210734360002382
:100434008360C3604FF48042026143618361C3619E
:10044400036200F0C3FB00B908BDFFF704FFFBE73C
:10045400C80000200054004008B50B480B4B036053
:1004640042F21073436000238360C3604FF4804200
:10047400026143618361C361036200F0A7FB00B9B9
:1004840008BDFFF7E8FEFBE774000020005C0040B5
:100494002DE9F0418AB0002305930693079308934E
:1004A40009930368334A934205D0334A934225D0D3
:1004B4000AB0BDE8F08100250095304C236B43F071
:1004C40002032363236B03F002030093009BC02306
:1004D400059312230693032308930423099305A980
:1004E400274801F0AFFB0195236C43F40013236408
:1004F400236C03F400130193019BD9E700250295B3
:100504001E4C236B43F004032363236B03F00403A7
:100514000293029B0395236B43F001032363236B34
:1005240003F001030393039B4FF4007305934FF00F
:100534001208CDF81880032708970426099605A900
:10054400104801F07FFB4FF480730593CDF81880B9
:1005540007950897099605A90B4801F073FB0495C4
:10056400236C43F400032364236C03F40003049317
:10057400049B9DE700540040005C004000380240AA
:1005840000040240000802400000024008B50A4886
:100594000A4B03604FF4E133436000238360C3607C
:1005A40003610C2242618361C36102F039F800B92E
:1005B40008BDFFF750FEFBE7DC01002000100140FE
:1005C40030B589B0002303930493059306930793EE
:1005D400026803F1804303F588339A4201D009B0DD
:1005E40030BD04460025019503F594335A6C42F05E
:1005F40010025A645A6C02F010020192019A029598
:100604001A6B42F001021A631B6B03F0010302939D
:10061400029B4FF4C06303930223049303230693C2
:100624000723079303A9204801F00CFB1F48204B24
:1006340003604FF0006343608560C5604FF48063DE
:10064400036145618561C5610562456201F06EFC27
:1006540018BB164BA3639C631648174B03604FF0FB
:1006640000634360402383600023C3604FF48062CF
:10067400026143618361C3610362436201F056FC1A
:1006840070B90C4B63639C6300221146252001F072
:1006940069FE252001F076FEA1E7FFF7DCFDD8E72F
:1006A400FFF7D9FDEDE700BF000002407C01002008
:1006B400406402401C010020B864024008B501F007
:1006C400CFF8FEE7FEE7FEE7FEE7FEE77047704778
:1006D400704708B501F0B8FE08BD000008B502482F
:1006E40001F00AFD08BD00BF7C01002008B50248E6
:1006F40001F002FD08BD00BF1C01002082B00021F2
:1007040000910B4B5A6C42F480425A645A6C02F4C6
:1007140080420092009A01911A6C42F080521A644D
:100724001B6C03F080530193019B02B0704700BF20
:100734000038024003685A6912F4806F01D1002026
:1007440070476FF480625A6100230363202280F8AB
:100754003D2080F83E30026C42F00402026480F8CE
:100764003C30012070472DE9F04107460D46904684
:100774001E4624E001F074FE069BC01AB04200D865
:10078400EEB900233B63202287F83D2087F83E30F2
:100794003A6C42F020023A6487F83C3001201EE0B3
:1007A4003B689C6925EA040C1FFA8CFCBCFA8CFC9F
:1007B4004FEA5C1CE04511D1B6F1FF3FDAD1C5F335
:1007C4000743012BECD13B685B6925EA030C1FFA54
:1007D4008CFCBCFA8CFC4FEA5C1CEBE70020BDE807
:1007E400F0812DE9F04105460E46174698463DE056
:1007F4001A6842F400721A602B686FF480625A61BE
:1008040000232B63202285F83D2085F83E302A6C96
:1008140042F004022A6485F83C30012034E001F0FF
:100824001FFEA0EB0800B84200D8FFB900232B63D9
:10083400202285F83D2085F83E302A6C42F02002C3
:100844002A6485F83C3001201EE02B689C6926EA66
:100854000404A4B2003C18BF0124A4B12B685A6953
:1008640012F4806FC4D1B7F1FF3FD8D1C6F3074368
:10087400012BEAD12B685C6926EA0404A4B2003C8B
:1008840018BF0124E9E70020BDE8F08170B50446F3
:100894000D46164623685B6913F0800F1CD1204671
:1008A400FFF748FFD0B9B5F1FF3FF3D001F0D8FD11
:1008B400801BA84201D8002DECD100232363202201
:1008C40084F83D2084F83E30226C42F020022264F9
:1008D40084F83C30012000E0002070BD0120FCE7DA
:1008E4002DE9F04385B004460D4691461F46DDF8D8
:1008F40030800D9E0368196841F480711960009678
:10090400434600224FF00111FFF72DFF60B9236821
:1009140005F0FE051D613346424626492046FFF791
:1009240060FF68B1012008E023681B6813F4807F2E
:1009340002D04FF400732364032005B0BDE8F083B4
:100944000023039323685A6903929B690393039BCF
:10095400324641462046FFF799FF30B9012F0FD1A7
:1009640023685FFA89F61E61E7E7236C042B01D044
:100974000120E2E72268136843F400731360F7E789
:1009840023684FEA19221A61324641462046FFF78E
:100994007DFF20B923685FFA89F61E61CDE7236CD9
:1009A400042B01D00120C8E72268136843F40073C4
:1009B4001360F7E7020001002DE9F04784B0044614
:1009C4000D46164699460C9FDDF83480026813687C
:1009D40043F4806313600368196841F480711960FB
:1009E400CDF800803B4600224FF00111FFF7BBFE1B
:1009F40070B95FFA85FA236805F0FE051D61434668
:100A04003A4641492046FFF7ECFE68B1012008E070
:100A140023681B6813F4807F02D04FF400732364AF
:100A2400032004B0BDE8F0870023039323685A69C8
:100A340003929B690393039B424639462046FFF782
:100A440025FF80B9B9F1010F18D12368F6B21E61F0
:100A5400424639462046FFF719FF68B3236C042B3E
:100A640024D00120DDE7236C042B01D00120D8E73A
:100A74002268136843F400731360F7E72368320AAB
:100A84001A61424639462046FFF700FF18B9236829
:100A9400F6B21E61DCE7236C042B01D00120C0E711
:100AA4002268136843F400731360F7E7226813683D
:100AB40043F400731360D4E72268136843F480732B
:100AC4001360CDF800803B4600224FF00111204610
:100AD400FFF749FE68B922684AF0010313614346EF
:100AE4003A4609492046FFF77CFE002899D00120A8
:100AF40097E723681B6813F4807F02D04FF40073D8
:100B0400236403208DE700BF0200010070B5044692
:100B14000D46164623685B6913F0040F1CD120466A
:100B2400FFF708FED0B9B5F1FF3FF3D001F098FC10
:100B3400801BA84201D8002DECD10023236320227E
:100B440084F83D2084F83E30226C42F02002226476
:100B540084F83C30012000E0002070BD0120FCE757
:100B640070B505460C4616462B68596911F0400FBE
:100B740029D1596911F0100F15D101F071FC801BB6
:100B8400A04201D8002CEFD100232B63202285F84A
:100B94003D2085F83E302A6C42F020022A6485F814
:100BA4003C30012070BD6FF010025A6100232B63AA
:100BB400202285F83D2085F83E302A6C2A6485F889
:100BC4003C300120EEE70020ECE70000002800F0B4
:100BD400CC8070B5044690F83D30002B77D02423A8
:100BE40084F83D302268136823F0010313602268FF
:100BF400136843F4004313602268136823F400432A
:100C0400136000F00BFE62685A4B9A4264D85A4B48
:100C140098428CBF00230123002B40F0A880574941
:100C2400A1FB00318B0C25686A6822F03F0242EA7E
:100C340091426A6021680A6A22F03F0266684D4D5B
:100C4400AE424FD8013313430B622168CA6922F4C0
:100C54004F4222F0FF026568464B9D424CD8431E2A
:100C64006D00B3FBF5F3013340F6FC70034278D01A
:100C7400C3F30B031A43CA6121680B6823F0C00352
:100C8400E269206A024313430B6021688B6823F4F2
:100C9400034323F0FF032269E068024313438B609C
:100CA4002168CB6823F0FF036269A0690243134300
:100CB400CB602268136843F00103136000202064B2
:100CC400202384F83D30206384F83E0070BD80F812
:100CD4003C30FFF7DDFB82E7294B98428CBF0023B1
:100CE400012399E74FF4967505FB03F3254DA5FB06
:100CF40003539B090133A6E7A668BEB9431E05EB5F
:100D0400450CB3FBFCF30133C3F30B03B3FA83F3D6
:100D14005B0943BBC6B9431E05EB4505B3FBF5F3BD
:100D24000133C3F30B0343F40043A3E7431E05EB72
:100D3400850C0CEB8C0CB3FBFCF30133C3F30B03FA
:100D4400B3FA83F35B09E4E7431E05EB850505EB82
:100D54008505B3FBF5F30133C3F30B0343F44043BD
:100D640088E7042386E7012384E7012070470120F4
:100D7400ACE700BFA08601007F841E0083DE1B4316
:100D8400FF083D00D34D62102DE9F04383B00446C3
:100D94000F46904699460C9E01F062FB054694F876
:100DA4003D00C0B2202803D0022003B0BDE8F08388
:100DB4000095192301224B492046FFF7D4FC002853
:100DC40040F0898094F83C30012B00F086800123A8
:100DD40084F83C3023681A6812F0010F03D11A68B2
:100DE40042F001021A602268136823F4006313605E
:100DF400212384F83D30402384F83E3000232364CB
:100E04000A9B6362BDF82C306385638D2385364B62
:100E1400E362019500964B46424639462046FFF769
:100E24005FFD00285BD1238D002B35D02A46314647
:100E34002046FFF72BFD20BB626A236812781A61F3
:100E4400626A531C6362218D013989B22185638DE5
:100E54009BB2013B9BB263852368586910F0040F71
:100E6400E1D00029DFD052781A61636A01336362EA
:100E7400238D013B2385638D9BB2013B9BB263852C
:100E8400D1E7236C042B01D001208EE7226813687C
:100E940043F400731360F7E72A4631462046FFF710
:100EA40035FE50B1236C042B01D001207DE722686C
:100EB400136843F400731360F7E72268136843F47C
:100EC40000731360202384F83D30002384F83E30FF
:100ED40084F83C3069E7022067E7022065E70120D7
:100EE40063E700BF020010000000FFFF2DE9F0439C
:100EF40087B004460F4690469946109E01F0B0FA1A
:100F0400054694F83D00C0B2202804D00227384694
:100F140007B0BDE8F08300951923012288492046D3
:100F2400FFF721FC002840F0438194F83C30012B6A
:100F340000F04081012384F83C3023681A6812F0E1
:100F4400010F03D11A6842F001021A602268136883
:100F540023F400631360222384F83D30402384F893
:100F64003E30002323640E9B6362BDF83C306385EE
:100F7400638D2385734BE362019500964B4642468D
:100F840039462046FFF718FD0746002840F0148133
:100F9400238D5BB9029323685A6902929A6902927B
:100FA400029A1A6842F400721A6075E0012B0AD0A2
:100FB400022B1AD00023059323685A6905929B6972
:100FC4000593059B68E02268136823F4806313602B
:100FD4000023039323685A6903929A690392039A3C
:100FE4001A6842F400721A6056E02268136823F407
:100FF400806313602268136843F400631360002362
:10100400049323685A6904929B690493049B43E004
:101014002A4631462046FFF7A3FD002840F0CE8043
:1010240023681A69636A1A70636A01336362238DE1
:10103400013B2385638D9BB2013B9BB263852BE00F
:1010440000953346002240492046FFF78CFB0028D8
:1010540040F0B6802268136843F400731360236879
:101064001A69636A1A70626A531C6362238D013BB6
:101074002385638D9BB2013B9BB2638523681B6907
:101084005370636A01336362238D013B2385638D4F
:101094009BB2013B9BB26385238D002B7FD0032B36
:1010A40054D8012BB4D0022BCAD000953346002269
:1010B40025492046FFF757FB002840F0838022682B
:1010C400136823F48063136023681A69636A1A70CF
:1010D400636A01336362238D013B2385638D9BB275
:1010E400013B9BB263850095334600221649204696
:1010F400FFF739FB002867D12268136843F40073B3
:10110400136023681A69636A1A70626A531C636203
:10111400238D013B2385638D9BB2013B9BB2638589
:1011240023681B695370636A01336362238D013B37
:101134002385638D9BB2013B9BB26385ACE700BF03
:10114400020010000000FFFF040001002A4631469F
:101154002046FFF705FD002838D123681A69636A21
:101164001A70626A531C6362238D013B2385638D6D
:101174009BB2013B9BB263852368596911F0040F4C
:101184008AD01B695370636A01336362238D013B08
:101194002385638D9BB2013B9BB263857CE720234F
:1011A40084F83D30002384F83E3084F83C30AEE6C9
:1011B4000227ACE60227AAE60127A8E60127A6E64D
:1011C4000127A4E60127A2E60127A0E601279EE65F
:1011D400002800F0E08170B582B00446036813F083
:1011E400010F3BD09F4B9B6803F00C03042B2CD0C6
:1011F4009C4B9B6803F00C03082B21D06368B3F568
:10120400803F4FD0B3F5A02F52D0964B1A6822F4EA
:1012140080321A601A6822F480221A606368002BF4
:1012240050D001F01DF905468E4B1B6813F4003FA6
:1012340014D101F015F9401B6428F5D90320B1E15C
:10124400884B5B6813F4800FD8D0864B1B6813F46B
:10125400003F03D06368002B00F09F81236813F0E4
:10126400020F54D07F4B9B6813F00C0F3ED07D4B84
:101274009B6803F00C03082B33D0E368002B68D081
:10128400794B01221A6001F0EBF80546754B1B6897
:1012940013F0020F54D101F0E3F8401B0228F5D9F2
:1012A40003207FE16F4A136843F480331360B5E78A
:1012B4006C4B1A6842F480221A601A6842F4803235
:1012C4001A60ABE701F0CCF80546664B1B6813F4D3
:1012D400003FC3D001F0C4F8401B6428F5D90320B3
:1012E40060E1604B5B6813F4800FC6D15D4B1B68F3
:1012F40013F0020F03D0E368012B40F05081594AE8
:10130400136823F0F803216943EAC10313602368D7
:1013140013F0080F42D063696BB3534B0122C3F837
:10132400802E01F09DF805464E4B5B6F13F0020FC3
:1013340034D101F095F8401B0228F5D9032031E19E
:10134400484A136823F0F803216943EAC103136090
:10135400DDE7454B00221A6001F082F80546414B57
:101364001B6813F0020FD2D001F07AF8401B022858
:10137400F5D9032016E13C4B0022C3F8802E01F07E
:101384006FF80546374B5B6F13F0020F06D001F080
:1013940067F8401B0228F5D9032003E1236813F002
:1013A400040F77D02F4B1B6C13F0805F33D10023D5
:1013B40001932C4B1A6C42F080521A641B6C03F09C
:1013C40080530193019B0125284B1B6813F4807FF4
:1013D40023D0A368012B34D0052B38D0214B1A6FAE
:1013E40022F001021A671A6F22F004021A67A36836
:1013F400002B3DD001F034F806461A4B1B6F13F056
:10140400020F46D101F02CF8801B41F28833984238
:10141400F3D90320C6E00025D6E7144A136843F441
:101424008073136001F01CF80646104B1B6813F41C
:10143400807FCED101F014F8801B0228F5D9032057
:10144400B0E0084A136F43F001031367CFE7054B7D
:101454001A6F42F004021A671A6F42F001021A6707
:10146400C5E700BF0038024000004742007000405A
:1014740000F0F6FF0646524B1B6F13F0020F08D024
:1014840000F0EEFF801B41F288339842F3D9032029
:1014940088E0EDB9A369002B00F08380484A926884
:1014A40002F00C02082A51D0022B17D0454B00221F
:1014B4001A6600F0D5FF0446414B1B6813F0007F09
:1014C40042D000F0CDFF001B0228F5D9032069E0CB
:1014D4003B4A136C23F080531364DBE7394B00223F
:1014E4001A6600F0BDFF0546354B1B6813F0007FFC
:1014F40006D000F0B5FF401B0228F5D9032051E0C7
:10150400E369226A1343626A43EA8213A26A5208B5
:10151400013A43EA0243E26A43EA0263284A536017
:10152400284B01221A6600F09BFF0446244B1B68DB
:1015340013F0007F06D100F093FF001B0228F5D9B9
:1015440003202FE000202DE000202BE0012B2BD0E6
:101554001B4B5B6803F48001E269914226D103F0DE
:101564003F02216A8A4223D1616A47F6C0721A4057
:10157400B2EB811F1ED103F44031A26A5208013A32
:10158400B1EB024F18D103F07063E26AB3EB026F60
:1015940014D1002006E001207047012002E0012060
:1015A40000E0002002B070BD0120FBE70120F9E754
:1015B4000120F7E70120F5E70120F3E70120F1E737
:1015C4000038024000004742014B0122DA647047B0
:1015D4000000474208B5334B9B6803F00C03042B0F
:1015E4005BD0082B5BD12F4B5A6802F03F025B683B
:1015F40013F4800F2CD02B4B5868C0F388104FEA9B
:10160400401CBCEB000C6EEB0E0E4FEA8E1343EA4B
:101614009C634FEA8C11B1EB0C0163EB0E03DB000E
:1016240043EA5173C90011EB000C43F10003590262
:1016340000234FEA4C2041EADC51FEF7A9FD194B87
:101644005B68C3F3014301335B00B0FBF3F027E0B5
:10165400144B5868C0F388104FEA401CBCEB000CD4
:101664006EEB0E0E4FEA8E1343EA9C634FEA8C1125
:10167400B1EB0C0163EB0E03DB0043EA5173C900C9
:1016840011EB000C43F10003990200234FEA8C2074
:1016940041EA9C51FEF77CFDD1E7034800E0034892
:1016A40008BD00BF0038024000127A000024F40094
:1016B400002800F09B8070B50D4604464F4B1B6814
:1016C40003F007038B4208D2CBB24C4A1370136861
:1016D40003F007038B4240F08B80236813F0020F62
:1016E40017D013F0040F04D0454A936843F4E05331
:1016F4009360236813F0080F04D0414A936843F4BD
:10170400604393603E4A936823F0F003A1680B435F
:101714009360236813F0010F32D06368012B21D04A
:101724009A1E012A25D9364A126812F0020F61D096
:1017340033498A6822F0030213438B6000F090FE61
:1017440006462F4B9B6803F00C036268B3EB820FD1
:1017540016D000F085FE801B41F288339842F0D900
:10176400032042E0264A126812F4003FE0D101202F
:101774003BE0234A126812F0007FD9D1012034E003
:101784001E4B1B6803F00703AB4207D9EAB21B4B9D
:101794001A701B6803F00703AB422DD1236813F0C2
:1017A400040F06D0164A936823F4E053E1680B4310
:1017B4009360236813F0080F07D0114A936823F449
:1017C4006043216943EAC1039360FFF703FF0C4BB5
:1017D4009B68C3F303130B4AD35CD8400A4B1860CD
:1017E4000A4B186800F0F0FD002070BD012070471E
:1017F4000120FAE70120F8E70120F6E7003C024067
:1018040000380240D03E00080800002004000020F8
:10181400014B1868704700BF0800002008B5FFF7A7
:10182400F7FF044B9B68C3F38223034AD35CD8407D
:1018340008BD00BF00380240C83E000808B5FFF7E5
:10184400E7FF044B9B68C3F34233034AD35CD8409D
:1018540008BD00BF00380240C83E000870470000C1
:1018640008B5064BDB6813F0800F00D108BDFFF705
:10187400F5FF024B80229A73F8E700BF003802405C
:1018840010B40A490C6924F440740C610C6944F4E2
:1018940040740C610C6944F001040C610260BFF3F4
:1018A4006F8F43605DF8044B704700BF003C0240FB
:1018B400074B1A6922F440721A611A6942F40072E1
:1018C4001A611A6942F001021A610160704700BF8F
:1018D400003C0240074B1A6922F440721A611A69EB
:1018E40042F480721A611A6942F001021A6101809D
:1018F400704700BF003C0240064B1A6922F4407254
:101904001A611A691A611A6942F001021A610170B6
:10191400704700BF003C0240274BDB6813F0100FF8
:1019240007D0264AD36943F01003D361224B102217
:10193400DA60214BDB6813F0200F07D01F4AD3690C
:1019440043F00803D3611C4B2022DA601A4BDB6896
:1019540013F0400F07D0194AD36943F00403D3614D
:10196400154B4022DA60144BDB6813F0800F07D06C
:10197400124AD36943F00203D3610F4B8022DA6029
:101984000D4BDB6813F4807F08D00C4AD36943F015
:101994000103D361084B4FF48072DA60064BDB68B5
:1019A40013F0020F07D0054AD36943F02003D36133
:1019B400014B0222DA607047003C02402002002002
:1019C400094B1B69002B01DB00207047064B074ABB
:1019D4005A6002F188325A601B69002B01DB002037
:1019E40070470120704700BF003C02402301674557
:1019F400034A136943F0004313610020704700BF9A
:101A0400003C024038B50446144B0022DA6100F071
:101A140027FD0546124BDB6813F4803F0AD0B4F16E
:101A2400FF3FF7D024B100F01BFD401BA042F1D9C9
:101A340003200DE00A4BDB6813F0010F02D0084BC2
:101A44000122DA60064BDB6813F4F97F01D1002030
:101A540038BDFFF761FF0120FAE700BF2002002034
:101A6400003C0240F8B516461B4A127E012A30D0CB
:101A740004460D461F46184B01221A764CF250308C
:101A8400FFF7C0FF90B9ACB1012C18D0022C1BD0C9
:101A940032463B462846FFF7F3FE4CF25030FFF740
:101AA400B1FF0E4A136923F0010313610A4B0022AC
:101AB4001A76F8BDF1B22846FFF71EFFEDE7B1B282
:101AC4002846FFF707FFE8E731462846FFF7F0FE10
:101AD400E3E70220EDE700BF20020020003C0240C3
:101AE400074B1A6922F440721A611A6942F004021F
:101AF4001A611A6942EA002242F480321A6170477C
:101B0400003C024001291BD002291CD009B14FF42A
:101B140040710E4B1A6922F440721A611A690A4321
:101B24001A611A6922F0F8021A611A6942EAC000BD
:101B340040F0020018611A6942F480321A61704759
:101B44004FF48071E5E74FF40071E2E7003C024096
:101B5400164B1B6813F4007F10D0144B1A6822F440
:101B640000721A601A6842F400621A601A6822F459
:101B740000621A601A6842F400721A600B4B1B6808
:101B840013F4806F10D0094B1A6822F480621A6033
:101B94001A6842F480521A601A6822F480521A6059
:101BA4001A6842F480621A60704700BF003C024029
:101BB400F8B5224B1B7E012B3ED004460E461F4B2C
:101BC40001221A764CF25030FFF71CFF074670BB17
:101BD4004FF0FF3333602368012B16D0A568E36808
:101BE400A2681344AB4220D9217C2846FFF78AFF20
:101BF4004CF25030FFF706FF114A136923F0FA0341
:101C04001361074680B90135E9E76168207CFFF775
:101C140067FF4CF25030FFF7F5FE0746084A136998
:101C240023F00403136100E03560FFF791FF034BD9
:101C340000221A763846F8BD0227FBE7200200206E
:101C4400003C024000230F2B00F2D78070B582B015
:101C540065E085684FEA430E032404FA0EF425EA8E
:101C64000405CC6804FA0EF42C438460446824EA26
:101C740002044A68C2F300129A40224342605CE0C4
:101C8400DC08083450F8242003F00705AD004FF0B9
:101C94000F0E0EFA05FE22EA0E0E0A69AA4042EA67
:101CA4000E0240F824205CE0042200E0002202FA44
:101CB4000EF22A430234514D45F82420504A9468C8
:101CC4006FEA0C0224EA0C054E6816F4801F01D05A
:101CD4004CEA04054A4CA560E46802EA04054E682F
:101CE40016F4001F01D04CEA0405454CE560646815
:101CF40002EA04054E6816F4003F01D04CEA0405DC
:101D04003F4C6560246822404D6815F4803F01D043
:101D14004CEA04023A4C226001330F2B6BD80122A7
:101D24009A400C6804EA020C32EA0404F4D14C68C8
:101D340004F00304013C012C8BD94A6802F003022D
:101D4400032A09D0C4685D000322AA4024EA0204DD
:101D54008A68AA402243C2604A6802F00302022A47
:101D64008ED004684FEA430E032202FA0EF224EAEC
:101D740002044A6802F0030202FA0EF222430260ED
:101D84004A6812F4403FC7D0002201921D4A546CA5
:101D940044F480445464526C02F480420192019AE7
:101DA4009C08A51C154A52F8255003F0030E4FEA6F
:101DB4008E0E0F2202FA0EF225EA0205124A904212
:101DC4003FF474AF02F5806290420ED002F5806257
:101DD40090420CD002F5806290420AD002F58062F3
:101DE40090423FF461AF072261E701225FE70222DC
:101DF4005DE703225BE702B070BD70470038014025
:101E0400003C014000380240000002400AB18161F8
:101E14007047090481617047436901EA030221EABA
:101E2400030141EA02418161704730B405682C68BE
:101E340024F480242C60046863608368402B05D0FC
:101E4400036899600368DA6030BC704703689A607D
:101E54000368D960F8E7000010B40368D9B21039F8
:101E64000C4AA2FB014212090B4CA25CC2655F2919
:101E740009D923F47F7323F0030304338365806D4E
:101E84005DF8044B704723F47F7323F003038365E9
:101E9400F5E700BFABAAAAAAC03E0008836A82691C
:101EA40092B9012B0AD0022B02D00BB1002070474B
:101EB400C36A13F0807F28D100207047C36AB3F14E
:101EC400C07F24D000207047B2F5005F09D0022BF8
:101ED40025D9032B25D1C36A13F0807F23D1002099
:101EE4007047032B03D8DFE803F01404140A00201E
:101EF4007047C36A13F0807F0DD100207047C36A16
:101F0400B3F1C07F09D00020704701207047012041
:101F1400704701207047012070470120704701205D
:101F240070470020704701207047000070B50446D8
:101F340000F096FA002C5BD00546022384F8353075
:101F4400002384F834302268136823F001031360FB
:101F540023681A6812F0010F0AD000F081FA431BBB
:101F6400052BF5D920236365032084F8350070BD63
:101F74001A68204911406268A0680243E06802437D
:101F84002069024360690243A0690243E069024395
:101F9400206A02430A43616A04291ED01A60266833
:101FA400756925F00705636A1D43042B07D1A36AED
:101FB4001D43E36A1BB12046FFF770FF90B97561BA
:101FC4002046FFF749FFE26D3F23934083600020E2
:101FD4006065012384F83530C9E7E16A206B014369
:101FE4000A43DBE740236365012084F83500BEE73C
:101FF4000120BCE73F8010F038B50446856D90F8A9
:10200400340001282BD0012084F8340094F83500E2
:10201400C0B2012804D0002384F83430022038BD33
:10202400022084F83500002060652046FFF7FDFE9D
:10203400E26D3F239340AB602268136843F01603BC
:102044001360236C23B12268136843F00803136000
:102054002268136843F0010313600020DFE70220C5
:10206400DDE770B50446866D00F0FAF994F8353072
:10207400DBB2022B06D080236365002384F834305E
:10208400012070BD05462268136823F0160313600F
:102094002268536923F080035361236CE3B12268FF
:1020A400136823F0080313602268136823F0010304
:1020B400136023681B6813F0010F11D000F0D0F9EE
:1020C400431B052BF5D920236365032084F83500D1
:1020D400002384F83430D4E7A36C002BDFD1E3E78A
:1020E400E26D3F239340B360012384F83530002030
:1020F40084F83400C5E70000F0B583B0044600233B
:102104000193724B1D68724BA3FB0535AD0A876DB5
:102114003E68C26D08239340334210D003681A68A6
:1021240012F0040F0BD01A6822F004021A60C26D78
:1021340008239340BB60436D43F001034365E26DA4
:1021440001239340334209D02268526912F0800F70
:1021540004D0BB60636D43F002036365E26D042346
:102164009340334209D02268126812F0020F04D05F
:10217400BB60636D43F004036365E26D1023934019
:10218400334224D02268126812F0080F1FD0BB60BB
:1021940023681A6812F4802F0DD01B6813F4002FE3
:1021A40004D1236C9BB12046984710E0A36C73B113
:1021B400204698470BE01A6812F4807F03D11A680E
:1021C40022F008021A60236C0BB120469847E26D96
:1021D40020239340334255D02268126812F0100F26
:1021E40050D0BB6094F83530DBB2052B0ED0236899
:1021F4001A6812F4802F33D01B6813F4002F2AD1ED
:10220400636C002B3ED0204698473BE0226813685D
:1022140023F0160313602268536923F0800353618B
:10222400236CA3B12268136823F008031360E26DE2
:102234003F239340BB60012384F83530002384F8A6
:102244003430236D002B3FD0204698473CE0A36CEC
:10225400002BE7D1EBE7E36BA3B12046984711E0ED
:102264001A6812F4807F09D11A6822F010021A60E9
:10227400012384F83530002384F83430E36B0BB148
:1022840020469847636DFBB1636D13F0010F17D0BF
:10229400052384F835302268136823F001031360A2
:1022A400019B01330193AB4204D823681B6813F0EC
:1022B400010FF5D1012384F83530002384F834303C
:1022C400E36C0BB12046984703B0F0BD0800002032
:1022D400B5814E1B406D7047002808DB0901C9B267
:1022E40000F1604000F5614080F80013704700F091
:1022F4000F000901C9B2014B1954704714ED00E0F5
:1023040000B500F00700C0F1070CBCF1040F28BFB2
:102314004FF0040C031D062B0FD9C31E4FF0FF3ED4
:102324000EFA0CF021EA000199400EFA03FE22EAAB
:102334000E0241EA02005DF804FB0023EEE7000010
:10234400074AD36823F4E0631B041B0C000200F467
:10235400E060034343F0BF6343F40033D36070474A
:1023640000ED00E010B50446054BD868C0F3022028
:10237400FFF7C6FF01462046FFF7AEFF10BD00BFC2
:1023840000ED00E0002807DB00F01F0240090123F4
:102394009340024A42F82030704700BF00E100E059
:1023A4000138B0F1807F0BD24FF0E0235861054A29
:1023B400F02182F823100020986107221A617047E7
:1023C4000120704700ED00E010B504460E4B1A786A
:1023D4004FF47A73B3FBF2F30C4A1068B0FBF3F0DA
:1023E400FFF7DEFF68B90F2C01D901200AE00022B3
:1023F40021464FF0FF30FFF7B5FF054B1C6000206E
:1024040000E0012010BD00BF0000002008000020F3
:102414000400002008B50B4B1A6842F400721A60DD
:102424001A6842F480621A601A6842F480721A6070
:102434000320FFF785FF0F20FFF7C6FFFEF75EF9C5
:10244400002008BD003C0240034A1168034B1B787E
:102454000B441360704700BF4002002000000020BE
:10246400014B1868704700BF4002002038B504468D
:10247400FFF7F6FF0546B4F1FF3F02D0044B1B788B
:102484001C44FFF7EDFF401BA042FAD338BD00BF48
:1024940000000020026802F10C0353E8003F23F01F
:1024A400C0030C3242E800310029F3D1202380F824
:1024B4003D307047026802F10C0353E8003F23F4F7
:1024C40090730C3242E800310029F3D1026802F122
:1024D400140353E8003F23F00103143242E80031AF
:1024E4000029F3D1036B012B05D0202380F83E3063
:1024F400002303637047026802F10C0353E8003FB2
:1025040023F010030C3242E800310029F3D1ECE748
:1025140010B504460268136923F44053C1680B43A1
:102524001361836802691A4343691A43C3691A43EE
:102534000168CB6823F4164323F00C031343CB60E8
:102544000268536923F4407381690B435361036840
:10255400314A934206D002F58062934202D0FFF7DB
:102564005DF901E0FFF76AF9E369B3F5004F29D09B
:102574000021031849411B1841F10001C90041EA37
:102584005371DB00181863684FEA83024FEA9373B0
:1025940041F10001FDF7FCFD204AA2FB003149098D
:1025A400642303FB11031B013233A2FB03235B09E6
:1025B40003F0F00202EB011203F00F03216813444D
:1025C4008B6010BD0023021843EB0301121841F184
:1025D4000001C90041EA5271D200101841F1000112
:1025E400626892185B41FDF7D3FD0C4AA2FB0031EF
:1025F4004909642303FB1103DB003233A2FB0323E9
:102604005B095A0002F4F87202EB011203F00703AB
:10261400216813448B60D4E7001001401F85EB51FF
:1026240058B310B5044690F83D300BB3242384F816
:102634003D302268D36823F40053D3602046FFF76B
:1026440067FF2268136923F4904313612268536976
:1026540023F02A0353612268D36843F40053D36000
:1026640000202064202384F83D3084F83E3010BDDF
:1026740080F83C30FDF7A4FFD8E701207047000044
:1026840038B5134690F83D20D2B2202A37D10446FB
:10269400002936D0002B36D090F83C20012A34D0C3
:1026A400012280F83C2001628384C38400250564F0
:1026B400212280F83D20426B1548D063626B154897
:1026C4001064626B1448D064626B1565226804322E
:1026D400606BFFF791FC23686FF040021A6084F886
:1026E4003C50226802F1140353E8003F43F0800396
:1026F400143242E800310029F3D1002000E0022026
:1027040038BD0120FCE70120FAE70220F8E700BF0A
:1027140015280008632800087328000810B504462B
:10272400226802F10C0353E8003F23F4F0730C32E7
:1027340042E800310029F3D1226802F1140353E87E
:10274400003F23F00103143242E800310029F3D1A1
:10275400236B012B3CD023685B6913F0800F13D0EB
:10276400226802F1140353E8003F23F0800314327B
:1027740042E800310029F3D1636B2BB100221A65C2
:10278400606BFFF76EFC80BB23685B6913F0400F3E
:1027940013D0226802F1140353E8003F23F04003EE
:1027A400143242E800310029F3D1A36B2BB100228B
:1027B4001A65A06BFFF755FC00BB0020E084E085A0
:1027C4002064202384F83E3084F83D30206310BD1B
:1027D400226802F10C0353E8003F23F010030C328B
:1027E40042E800310029F3D1B5E7606BFFF772FDD1
:1027F4002028C9D1102323640320E8E7A06BFFF746
:1028040069FD2028D9D1102323640320DFE7704712
:1028140008B50346806B1B681B6813F4807F1AD1CC
:102824000023C384026802F1140353E8003F23F039
:102834008003143242E800310029F3D1026802F126
:102844000C0353E8003F43F040030C3242E80031EC
:102854000029F3D108BDFFF7DAFFFBE7704708B59D
:10286400806BFFF7FBFF08BD70477047704710B5DA
:10287400846B23685A6994F83D30DBB2212B10D065
:1028840023685A6902F0400294F83E30DBB2222BEE
:1028940011D0236C43F0100323642046FFF7E6FFB6
:1028A40010BD02F08002002AEAD00023E38420460F
:1028B400FFF7F0FDE4E7002AEBD00023E385204690
:1028C400FFF7F8FDE5E7704708B5806B036B012B54
:1028D40002D0FFF7CAFF08BD818D4908FFF7F3FF57
:1028E400F9E708B50346806B1B681B6813F4807F07
:1028F4002BD10023C385026802F10C0353E8003F87
:1029040023F480730C3242E800310029F3D10268C9
:1029140002F1140353E8003F23F00103143242E8A8
:1029240000310029F3D1026802F1140353E8003F97
:1029340023F04003143242E800310029F3D120236C
:1029440080F83E30036B012B05D0036B012B0FD0B5
:10295400FFF78AFF08BD026802F10C0353E8003F49
:1029640023F010030C3242E800310029F3D1ECE7E4
:10297400818DFFF7A8FFEDE730B583B00446134619
:102984008162828500250564222280F83E20826BC4
:102994002048D063A26B20481064A26B1F48D06407
:1029A400A26B156520680A46011DA06BFFF724FB86
:1029B400019523681A6801925B680193019B84F86E
:1029C4003C5023695BB1226802F10C0353E8003FD9
:1029D40043F480730C3242E800310029F3D12268B9
:1029E40002F1140353E8003F43F00103143242E8B8
:1029F40000310029F3D1226802F1140353E8003FA7
:102A040043F04003143242E800310029F3D100209E
:102A140003B030BDE7280008CD280008732800085B
:102A240008B590F83E30DBB2202B0DD171B17AB1EC
:102A340090F83C30012B0DD0012380F83C3000236A
:102A44000363FFF799FF00E0022008BD0120FCE7C3
:102A54000120FAE70220F8E7034AD2F8883043F469
:102A64007003C2F88830704700ED00E0BFF34F8F69
:102A74000549CA6802F4E062044B1343CB60BFF318
:102A84004F8F00BFFDE700BF00ED00E00400FA0532
:102A9400094B04221A705A709A700222DA700023C9
:102AA40006E0054A1A440121117191720B44DBB20C
:102AB400052BF6D9704700BF440200204FF0000CEC
:102AC400BCF1050F38D800B527E0C0EB00121A445A
:102AD4000A321A4901EB8202002151600133DBB250
:102AE400092BF2D9154BC0EB00118A001A440021BE
:102AF40082F85410191891F804E082F856E0897AA3
:102B0400C0EB00108200134483F855100CF1010C43
:102B14005FFA8CFCBCF1050F0CD86046CCEB0C13AF
:102B24009A00064B13440022DA611A625A629A62CE
:102B34000023D5E75DF804FB704700BF4402002082
:102B440010B51949A1F111040822C87D00F004FB55
:102B5400637CA27C43EA02231BB207EE903AF8EEB0
:102B6400E77A94ED007AC7EE876A104AC2ED0A6AE2
:102B7400E37C217D43EA01231BB207EE903AF8EE91
:102B8400E77AC7EE876AC2ED196A637DA17D43EADD
:102B940001231BB207EE903AF8EEE77AC7EE876A94
:102BA400C2ED286A10BD00BFD903002044020020F2
:102BB40010B51949A1F111040822C87D00F064FC84
:102BC400A37C627C43EA02231BB207EE903AF8EE40
:102BD400E77A94ED007AC7EE876A104AC2ED376A45
:102BE400237DE17C43EA01231BB207EE903AF8EE21
:102BF400E77AC7EE876AC2ED466AA37D617D43EA40
:102C040001231BB207EE903AF8EEE77AC7EE876A23
:102C1400C2ED556A10BD00BF090400204402002023
:102C240010B54FF0000E64E0CEEB0E139A00464B45
:102C34001344002283F8542078E0C0EB00121A44B5
:102C44000A32414901EB820292ED017A77EE877AEA
:102C54000133DBB29C45F0D8BFEE007AF4EEC77ABC
:102C6400F1EE10FA06DDB7EE007AF4EEC77AF1EE73
:102C740010FA5FD407EE10CAB8EEC77AC7EE876AB7
:102C8400C0EB00139A00304B1344C3ED096A2E497C
:102C9400C0EB00139A000A44D2ED097AD2ED086A17
:102CA40092F8553007EE103AB8EE477AB7EE006A5C
:102CB40037EE067AF0EE005A85EE876A77EEE67A0A
:102CC40067EE867A77EEA67AFDEEE77A17EE903A0B
:102CD4001BB200F1080421F8143007EE903AF8EE24
:102CE400E77AC2ED087AC2ED077A0EF1010E5FFAB7
:102CF4008EFEBEF1050F25D87046134CCEEB0E1296
:102D04009300234493F854C00CF10101C9B283F831
:102D14005410D3ED0A7A62440A3204EB8204C4EDFF
:102D2400017A93F856C061453FF47EAF0023DFED8E
:102D3400077A8FE7C0EB00139A00034B1344002279
:102D44005A62A4E700BF10BD440200200000000046
:102D5400014B5870704700BF44020020014B1870AB
:102D6400704700BF44020020014BD870704700BF79
:102D740044020020014B9870704700BF44020020B9
:102D840008B5024800F0F6FE08BD00BF00C0000808
:102D940008B5FFF77DFEFFF7F3FF08BD08B5FFF7A1
:102DA400F7FFFFF78BFE00F021F800F0EDF900F0DB
:102DB400C5F900F057FB012000F0EAFB2820FFF7DB
:102DC40055FBFFF7BDFEFFF7F3FEFFF729FF00F009
:102DD400F1FBF3E708B5024800F0A0FE08BD00BF10
:102DE40000C0000808B5FFF741FE0000B14BB24A2D
:102DF400DA60D6221A74002305E0AE4A1A44002190
:102E040051740133DBB2132BF7D9AA4B282283F870
:102E14002820292283F829202A2283F82A202B22F9
:102E240083F82B202C2283F82C202D2283F82D20AC
:102E340010221A715A7942F001025A71D2B26FF318
:102E440041025A719D4B5B78022B0FD0042B29D081
:102E5400082B31D0102B39D0964B5A796FF382025C
:102E64005A71D2B26FF3C3025A7108E0914BD2B2D5
:102E74006FF382025A71D2B26FF3C3025A718F4B4D
:102E8400DB78012B2CD0023B082B00F21B81DFE8FE
:102E940013F06E0080009200A400B600C800DA00AF
:102EA400EC00FE00834B5A796FF382025A71D2B25E
:102EB40042F008025A71E2E77E4B5A7942F004026A
:102EC4005A71D2B242F008025A71D8E7794B5A7952
:102ED40042F004025A71D2B26FF3C3025A71CEE7C0
:102EE400744B5A7942F010025A71D2B26FF3451200
:102EF4005A71D2B26FF386125A71D2B26FF3C712FB
:102F04005A716C4B17229A71DA796FF30002DA71F5
:102F1400D2B26FF34102DA71D2B26FF38202DA7184
:102F2400D2B26FF3C302DA71D2B26FF30412DA7160
:102F3400D2B26FF34512DA71D2B26FF38612DA713C
:102F4400D2B26FF3C712DA7100BF5C4B5B78022B0D
:102F540000F0CA80042B00F0CB80082B00F0CC805A
:102F6400102B00F0CD80534B554A1A607047514BDB
:102F74005A796FF304125A71D2B242F020025A7194
:102F8400D2B26FF386125A71D2B26FF3C7125A716A
:102F9400B7E7484B5A7942F010025A71D2B242F064
:102FA40020025A71D2B26FF386125A71D2B26FF301
:102FB400C7125A71A5E73F4B5A796FF304125A713D
:102FC400D2B26FF345125A71D2B242F040025A7132
:102FD400D2B26FF3C7125A7193E7364B5A7942F063
:102FE40010025A71D2B26FF345125A71D2B242F042
:102FF40040025A71D2B26FF3C7125A7181E72D4B56
:103004005A796FF304125A71D2B242F020025A7103
:10301400D2B242F040025A71D2B26FF3C7125A715F
:103024006FE7244B5A7942F010025A71D2B242F03F
:1030340020025A71D2B242F040025A71D2B26FF3F6
:10304400C7125A715DE71B4B5A796FF304125A7118
:10305400D2B26FF345125A71D2B26FF386125A711B
:10306400D2B242F080025A714BE7124B5A7942F0C5
:1030740010025A71D2B26FF345125A71D2B26FF381
:1030840086125A71D2B242F080025A7139E7094B62
:103094005A796FF304125A71D2B242F020025A7173
:1030A400D2B26FF386125A71D2B242F080025A71D0
:1030B40027E700BFC8030020C80000204402002006
:1030C4006F128341104B5A796FF304125A71D2B2C2
:1030D40042F020025A71D2B26FF386125A71D2B200
:1030E4006FF3C7125A710CE7074B084A1A6070470E
:1030F400054B074A1A607047034B064A1A6070472B
:10310400014B054A1A607047C80300206F128341BF
:103114006F1203416F1283406F12034010B582B0E7
:1031240002468DF80710044C0DF10703217CE0687A
:1031340000F0B0FC02B010BDC803002010B5054C6F
:1031440061792079FFF7EAFFE179A079FFF7E6FFDB
:1031540010BD00BFC803002010B582B00B46012A81
:1031640008D0084C00920246217CE06800F0BEFCC6
:1031740002B010BD034C0246217CE06800F0A0FCC4
:10318400F6E700BFC8030020A74BA84ADA60D022A4
:103194001A74002305E0A44A1A440021517401332F
:1031A400DBB2132BF7D9A04B3B2283F828203C2217
:1031B40083F829203D2283F82A203E2283F82B20FD
:1031C4003F2283F82C20402283F82D2019221A71E3
:1031D4005A7942F001025A71D2B242F002025A7193
:1031E400D2B242F004025A71D2B26FF3C3025A71DE
:1031F400D2B26FF304125A71D2B26FF345125A71FC
:10320400D2B26FF386125A71D2B26FF3C7125A71E7
:103214001A229A71864B9B78002B46D1824BDA791D
:103224006FF30002DA71D2B26FF34102DA71D2B2F3
:103234006FF38202DA717C4BDA796FF3C302DA71CD
:10324400D2B26FF30412DA71D2B26FF34512DA71AB
:10325400D2B26FF38612DA71D2B26FF3C712DA7197
:103264001C221A725A7A6FF300025A72D2B26FF3A6
:1032740041025A72D2B26FF382025A726C4B1B78BB
:10328400022B7CD0042B00F09F80082B00F0A6803A
:10329400102B00F0AD80644B5A7A6FF3C3025A725C
:1032A400D2B26FF304125A7272E0013B052B58D864
:1032B400DFE803F003111F2D3B495B4BDA7942F041
:1032C4000102DA71D2B26FF34102DA71D2B26FF352
:1032D4008202DA71AFE7544BDA796FF30002DA71E4
:1032E400D2B242F00202DA71D2B26FF38202DA7120
:1032F400A1E74D4BDA7942F00102DA71D2B242F021
:103304000202DA71D2B26FF38202DA7193E7464BAA
:10331400DA796FF30002DA71D2B26FF34102DA7133
:10332400D2B242F00402DA7185E73F4BDA7942F017
:103334000102DA71D2B26FF34102DA71D2B242F011
:103344000402DA7177E7384BDA796FF30002DA7145
:10335400D2B242F00202DA71D2B242F00402DA715D
:1033640069E7314BDA796FF30002DA71D2B26FF3A5
:103374004102DA71D2B242F00402DA715BE72A4BFD
:10338400D2B26FF3C3025A72D2B26FF304125A72FA
:10339400254B5A7A6FF345125A72D2B26FF38612E2
:1033A4005A72D2B26FF3C7125A7200BF204B1B7805
:1033B400022B27D0042B2AD0082B2CD0102B2ED054
:1033C400194B1C4A1A6020E0174B5A7A42F0080243
:1033D4005A72D2B26FF304125A72D9E7124B5A7A64
:1033E4006FF3C3025A72D2B242F010025A72CFE79C
:1033F4000D4B5A7A42F008025A72D2B242F01002CD
:103404005A72C5E7084B0B4A1A6000BF7047064B57
:10341400094A1A60F9E7044B084A1A60F5E7024BB7
:10342400074A1A60F1E700BFF80300207400002087
:10343400440200206F1283416F1203416F128340D4
:103444006F12034010B582B002468DF80710044C89
:103454000DF10703217CE06800F01CFB02B010BDF5
:10346400F803002010B5074C61792079FFF7EAFFD3
:10347400E179A079FFF7E6FF617A207AFFF7E2FFAE
:1034840010BD00BFF803002010B582B00B46012A1E
:1034940008D0084C00920246217CE06800F026FB2C
:1034A40002B010BD034C0246217CE06800F008FB2A
:1034B400F6E700BFF803002010B50C4600BF304B00
:1034C400984203D02F4B984219D010BDC829FCD183
:1034D400184600F036FAC0B22B4B1870022808D0F8
:1034E400032809D00128F0D1FFF774FCFFF77AFC18
:1034F400EBE7FFF777FCE8E7FFF7CAFAE5E71846DA
:1035040000F01FFAA4F164010F29DED8DFE801F00E
:10351400080B0E1114171A1D202326292C2F3235BF
:10352400FFF71CFCD1E7FFF713FCCEE7FFF722FC03
:10353400CBE7FFF719FCC8E7144B1871C5E7134B29
:103544005871C2E7114B9871BFE7104BD871BCE7B3
:103554000E4B1872B9E70D4B5872B6E70B4B9872C5
:10356400B3E70A4BD872B0E7084B1873ADE7074BC3
:103574005873AAE7054B9873A7E7044BD873A4E7DD
:1035840034000020400000202804002044020020D1
:1035940010B504466420FEF769FF012C01D000BF7A
:1035A40010BD4FF482720249204600F0D7F9F7E7C4
:1035B4005C04002038B53F4CB4F910203E4D92B263
:1035C4000121284600F0C4F9B4F9122092B2022174
:1035D400284600F0BDF9B4F9142092B2032128461C
:1035E40000F0B6F9B4F9162092B20421284600F08E
:1035F400AFF9B4F9182092B20521284600F0A8F9D1
:10360400B4F91A2092B20621284600F0A1F92B4DF4
:1036140022786421284600F09BF9627865212846C7
:1036240000F096F9A2786621284600F091F9E27834
:103634006721284600F08CF922796821284600F099
:1036440087F962796921284600F082F9A2796A2112
:10365400284600F07DF9E2796B21284600F078F9DC
:10366400227A6C21284600F073F9627A6D2128468B
:1036740000F06EF9A27A6E21284600F069F9E27A28
:103684006F21284600F064F9227B7021284600F05F
:103694005FF9627B7121284600F05AF9A27B7221FE
:1036A400284600F055F9E27B7321284600F050F9D2
:1036B40038BD00BF440200204C0000204000002020
:1036C400012801D000BF704710B50446084800F037
:1036D4006EF808B900BF10BDB0F1FF3FFBD000BFCA
:1036E400C2B2034B1969204600F04EF900BFF2E75D
:1036F4000C00002070B504464FF0000E14E00329BE
:1037040006D0062904D0102902D00BE0042909D1DF
:1037140070BD0129FCD00529FAD00F29F8D001E0A9
:103724000229F5D00EF1010E207E70451CDD606982
:1037340050F82E000028EBD0B0F800C09445F1D822
:10374400D5184688B4446545ECDC0579032DE9D8E1
:1037540001A656F825F000BF03370008113700080A
:1037640017370008253700080020D1E7844610B138
:103774004FF6FF700FE0704740080133DBB2072BB0
:1037840007D810F0010FF7D04AF2010282EA500084
:10379400F3E7013989B249B100F47F431CF8012BE6
:1037A400C0B24240134498B20023E8E770470028AF
:1037B40000F0B8802DE9F04706460569002D00F0B9
:1037C400B480027B012A14D0717E2B78994240F098
:1037D400AF8095F8019009F1FF33DBB2052B0AD9CC
:1037E400A9F10F03DBB2012B00F2A580AC790734F9
:1037F40002E00635E8E706245AB92F5D631CEB5C4A
:1038040047EA032721462846FFF7B0FF874240F0E6
:103814009580336803B19847B9F1030F19D0B9F112
:10382400060F4FD049F080031B0243F001036B8065
:103834000324337B012B6ED0A1B22846FFF796FFF9
:103844002855631CC0F30720E854A01C00BFBDE842
:10385400F08795F80380AB7848EA03286C792B79D4
:1038640044EA03240FFA84FA234642464946304682
:10387400FFF740FF074650B14FEA4A0A85F802A015
:10388400B36813B1224641469847002115E049F434
:103894002073A5F801300324CBE708EB01039BB2A6
:1038A4003A889B1A9BB2BA6832F813004B00033370
:1038B400020A42EA0022EA5201318C42EDDC640041
:1038C4000334B6E7EF78AB7847EA032701233A4697
:1038D40049463046FFF70EFF0346A0B100BF6879A2
:1038E4002A7940EA022099681A88BA1A21F8120043
:1038F400D6F80480B8F1000F03D0012239461846E7
:10390400C04700BF95E749F080031B0243F0020360
:103914006B8003248DE7230243EA242325F8023C29
:10392400A01D94E74FF0FF3070474FF0FF308EE753
:103934004FF0FF308BE74FF0FF3088E74FF0FF3058
:1039440085E70388C91A89B2836833F81100704780
:1039540083680088091A23F81120704738B50C468B
:1039640015466420FEF782FD06480268D36843F0DA
:103974001003D360C58584624FF482722146FFF739
:103984004FF838BDDC01002008B5012804D000BF81
:103994000020FEF775FE08BD0048FAE7DC010020B0
:1039A40010B5394B1B681A6812F0100F3ED06FF037
:1039B40010021A60344B1A686FF02001116000BFC6
:1039C4009B6B1B685B68B3F5827F01D100BF10BDA0
:1039D4002D4C23686FF008021A6023686FF002020E
:1039E4001A6023686FF001021A6023686FF0800286
:1039F4001A6023686FF004021A602268536923F086
:103A0400400353612046FEF789FE0120FFF758FE6C
:103A14001E4B4FF4FA621A80A06BFEF722FB4FF4A0
:103A24008272A16A2046FEF7FBFFD0E71A6812F003
:103A3400200F03D06FF020021A60C8E71A6812F052
:103A4400400F11D16FF400721A600F4B1A686FF4B3
:103A5400807111601A686FF0400111601B686FF08B
:103A640010021A6000BFB2E76FF040021A6000BF94
:103A740010210748FEF7D0F9034B5B6B1B685B68AA
:103A8400002BA4D100BFA2E7DC01002060050020C8
:103A94000008024010B584B01C464FF47A730293B8
:103AA400012301930094FDF76FF908B104B010BD30
:103AB400202100F1804000F50230FEF7ADF9F5E772
:103AC40010B584B01C464FF47A730293012301931A
:103AD4000094FDF70BFA08B104B010BD202100F1E9
:103AE400804000F50230FEF797F9F5E710B584B091
:103AF4004FF47A7402949DF81840019400930123C2
:103B0400FDF7F4F908B104B010BD202100F18040A4
:103B140000F50230FEF780F9F5E7000030B587B014
:103B240005460024009472B6FDF74AFF0194012370
:103B340004930323039302230593694601A8FEF724
:103B440037F8044670B1FDF753FF62B60DE0084B39
:103B540053F82420002329460220FDF783FF04356F
:103B64000134E4B2032CF2D962B6012007B030BDAF
:103B740044020020002305E050F8041B034A42F8E5
:103B840023100133032BF7D9704700BF44020020F0
:103B940002440346934200D1704703F8011BF9E73E
:103BA40070B50D4D0D4C641BA4100026A64209D11E
:103BB4000B4D0C4C00F076F9641BA4100026A642B1
:103BC40005D170BD55F8043B98470136EEE755F82A
:103BD400043B98470136F2E7E83E0008E83E000857
:103BE400E83E0008EC3E00082DE9F047089D0C462D
:103BF400002B4ED194468C458646B2FA82F262D9A5
:103C04004AB1C2F12003914020FA03F30CFA02FCFA
:103C1400194300FA02FE4FEA1C471FFA8CF6B1FB67
:103C2400F7F44FEA1E4307FB141143EA014304FB74
:103C340006F199420AD91CEB030304F1FF3080F02A
:103C44001381994240F21081023C6344591A1FFACD
:103C54008EF3B1FBF7F007FB101143EA014300FBBD
:103C640006F69E420AD91CEB030300F1FF3180F0F3
:103C7400FD809E4240F2FA80634402389B1B40EA76
:103C8400044000211DB1D3400022C5E90032BDE843
:103C9400F0878B4205D90DB1C5E900010021084622
:103CA400F5E7B3FA83F1002946D1A34202D3904247
:103CB400C0F0F180861A64EB03030120002DE6D0E6
:103CC400C5E90063E3E7002A40F09180A1EB0C040E
:103CD4004FEA1C481FFA8CF70121B4FBF8F64FEAAF
:103CE4001E4308FB164443EA044307FB06F09842CC
:103CF40008D91CEB030306F1FF3402D2984200F208
:103D0400CE8026461C1A1FFA8EF3B4FBF8F008FB8B
:103D1400104443EA044300FB07F79F4208D91CEB15
:103D2400030300F1FF3402D29F4200F2B180204627
:103D3400DB1B40EA0640A5E7C1F120068B4022FACE
:103D440006F71F4320FA06FC04FA01F343EA0C03C6
:103D5400F44000FA01F8380C4FEA1349B4FBF0FEC2
:103D64001FFA87FC00FB1E4449EA04440EFB0CF9CD
:103D7400A14502FA01F20AD93C190EF1FF3A80F08A
:103D84008580A14540F28280AEF1020E3C44A4EB52
:103D940009041FFA83F9B4FBF0F300FB134449EA66
:103DA400044403FB0CFCA44507D93C1903F1FF3080
:103DB40068D2A44566D9023B3C4443EA0E40A0FBCA
:103DC4000293A4EB0C049C42CE469C4652D34FD0A3
:103DD40055B1B8EB0E0364EB0C0404FA06F6CB40C1
:103DE400CC401E43C5E900640021BDE8F087C2F160
:103DF400200320FA03F10CFA02FC24FA03F39440A2
:103E04000C434FEA1C4800FA02FE1FFA8CF7B3FB7E
:103E1400F8F008FB1031230C43EA014300FB07F1DF
:103E2400994208D91CEB030300F1FF362CD29942C6
:103E34002AD9023863445B1AA4B2B3FBF8F108FB35
:103E4400113344EA034401FB07F3A34208D91CEBF2
:103E5400040401F1FF3613D2A34211D90239644498
:103E6400E41A41EA004138E70446EFE6084605E76C
:103E7400C845ADD2B9EB020E63EB070C0138A7E7D6
:103E84003146EDE7034698E73046D4E7D6467EE769
:103E9400634402384CE70646234608460EE7023ED2
:103EA40063442FE7F8B500BFF8BC08BC9E467047D2
:0C3EB400F8B500BFF8BC08BC9E46704783
:103EC0000006101600061016000000000102030490
:103ED00000000000000000000102030406070809BA
:083EE0000CFDFF7F0100000052
:043EE800ED010008E0
:043EEC00C901000800
:103EF00001000000100000000024F4000000000099
:103F0000BD34000800000000000000005C04002038
:103F100028000020030100004C0000204000002089
:103F200034000020C8000100000000002C04002024
:103F300064001000000000003004002001000600B2
:083F4000000000005004002005
:0400000508000209E4
:00000001FF
